:1000000000400020B90B0000F90B0000FB0B0000C2
:1000100000000000000000000000000000000000E0
:10002000000000000000000000000000FD0B0000C8
:100030000000000000000000FF0B0000010C0000A9
:10004000030C0000030C0000030C0000030C000074
:10005000030C000000000000030C0000030C000073
:10006000030C0000030C0000030C0000030C000054
:10007000030C0000030C0000030C0000030C000044
:10008000030C0000030C0000030C0000030C000034
:10009000030C0000030C0000030C0000030C000024
:1000A000030C0000030C0000000000000000000032
:1000B0000000000000000000000000000000000040
:1000C00008B5054B054803331B1A062B03D9044B0F
:1000D000002B00D0984708BD3804002038040020C9
:1000E000000000000648074908B5091A8910CB0F1F
:1000F0005918491003D0044B002B00D0984708BD75
:1001000038040020380400200000000010B5074C1F
:100110002378002B09D1FFF7D3FF054B002B02D02A
:10012000044800E000BF0123237010BD3804002004
:10013000000000005011000008B5094B002B03D04F
:100140000848094900E000BF08480368002B02D1B5
:10015000FFF7C8FF08BD064B002BF9D09847F7E71B
:1001600000000000501100003C0400203404002076
:1001700000000000144B002B00D1124B9D46402282
:1001800092029A1A924600218B460F461148124A53
:10019000121A00F07FFE0D4B002B00D098470C4B3D
:1001A000002B00D098470020002104000D000B48D0
:1001B00000F01AFE00F04AFE2000290000F010F8BE
:1001C00000F01AFE000008000040002000000000BF
:1001D000000000003804002054040020190E000024
:1001E00090B58FB002AF03237B622F4B3B622F4B46
:1001F000FB61796A3A6AFB69081C111C1A1C00F041
:1002000053FB00F05BF800F0C1F800F0B7FA802370
:100210009B00BB613B1C181C00F0C0FA3B1C1B6818
:100220007B613B1C5B683B613B1C9B68FB6020481F
:1002300020497A693C69FB680093231C00F04EFA60
:100240007A69BB69D318FA22D2005343FB62BB69B7
:100250005B00F86A191C00F0D5FC031CFB62FB6A0A
:10026000FA22D20094466344FB62FA6AFA231B0125
:100270009A4203DDFA231B01FB6206E0FB6A0E4A89
:10028000934202DCFA23DB00FB62FB6A181C00F0DD
:1002900081FBFA239B00BB62BB6A013BBB62BB6A6A
:1002A000002BF9D1B6E7C046409C0000B80B000017
:1002B0003903000030110000CF07000080B500AF07
:1002C000A023DA05A323DB0080214904D150A02319
:1002D000DB051349802292045A50124A124B18210E
:1002E000D150104A114B1921D1500E4A104B1149CF
:1002F000D1500C49A223DB0001225242CA500949C5
:10030000A123DB0001225242CA50064AA023DB008F
:100310000421D150034B01221A60BD4680BDC04666
:100320001C050000002000400C0500001405000022
:10033000240500000050270080B582B000AF021CE9
:10034000FB1D1A700F4A8E235B000021D1500D4B0C
:1003500001229A600B49FB1D1B780B4A8B50C0464B
:10036000084A8E235B00D358002BF9D0054A8E2310
:100370005B000021D150034B0122DA60BD4602B080
:1003800080BDC046002000401C05000080B500AFC5
:10039000174AA123DB000021D150154A154B1E211D
:1003A000D150A023DA05E023DB001349D150A0236C
:1003B000DA05EF23DB001049D1500D4A84235B009E
:1003C0000021D1500A4A8E235B000021D150084AF7
:1003D00092235B000021D1500549084ACC235B04DD
:1003E0008B50034AA023DB000521D150BD4680BDC0
:1003F000003000400C0500000C0600002405000041
:1004000080B586B000AFBA607B600F23FB18021C7A
:100410001A700E23FB180A1C1A7030490F23FB18A0
:100420001A78B123DB00CA502C4B01229A602B4A68
:100430008E235B000021D15028490E23FB181B7826
:10044000274A8B50C046254A8E235B00D358002B89
:10045000F9D0224A84235B000021D1501F4B012296
:100460001A6000237B6117E0C0461C4A84235B00AE
:10047000D358002BF9D0194A84235B000021D150B6
:100480007B697A68D3181549A322D2008A58D2B260
:100490001A707B6901337B61BB685A1E7B699A4283
:1004A000E2DC0E4B01225A61C0460C4A84235B00F9
:1004B000D358002BF9D0BB68013B7A68D3180749A1
:1004C000A322D2008A58D2B21A70044A84235B0055
:1004D0000021D150BD4606B080BDC046003000406E
:1004E0001C05000080B586B000AFBA607B600F23AA
:1004F000FB18021C1A700E23FB180A1C1A702049E4
:100500000F23FB181A78B123DB00CA501C4B0122C1
:100510009A601B4A8E235B000021D15018490E239C
:10052000FB181B78174A8B50C046154A8E235B0078
:10053000D358002BF9D000237B6116E0104A8E239C
:100540005B000021D1500E497B697A68D3181B7873
:100550001A1C0C4BCA50C046094A8E235B00D35864
:10056000002BF9D07B6901337B617A69BB689A42C1
:10057000E4DB034B01225A61BD4606B080BDC04694
:10058000003000401C05000080B586B000AF7860E8
:1005900039603B68002B03D17B683020984755E0D9
:1005A00000237B6100233B610023FB603B68002B41
:1005B00004DA0123FB603B685B423B6019E03A6967
:1005C000131C9B009B185B003B613B68181C0A21B5
:1005D00000F0FEFB0B1C1A1C3B699B183B613B683F
:1005E000181C0A2100F00EFB031C3B607B690133E1
:1005F0007B613B68002BE2D1FB68002B02D07B685B
:100600002D20984715E03B69181C0A2100F0E0FBFB
:100610000B1CDBB23033DAB27B68101C98473B69A5
:10062000181C0A2100F0EEFA031C3B617B69013BB8
:100630007B613B69002BE6D105E07B683020984761
:100640007B69013B7B617B69002BF6D1BD4606B01F
:1006500080BDC04680B584B000AF78600023FB60E9
:100660000EE0FA68131C9B009B185B00FB607B6824
:100670001B78303BFA68D318FB607B6801337B60E2
:100680007B681B78642BECD1FB68181CBD4604B05A
:1006900080BDC04680B584B000AF78607B68002B19
:1006A00001D1012316E00023FB607B68002B02DAF6
:1006B000FB680133FB6009E0FB680133FB607B688A
:1006C000181C0A2100F09EFA031C7B607B68002B3B
:1006D000F2D1FB68181CBD4604B080BD0EB480B5D5
:1006E00089B000AF78603023FB18FB60FB6ABB6108
:1006F00039E0BB691B78252B05D0BB691A787B686C
:10070000101C98472CE0FB681A1DFA601B687B617F
:10071000BB690133BB61BB69181CFFF79BFF031C5E
:100720003B617B69181CFFF7B5FF031CFB6102E00E
:10073000BB690133BB61BB691B78642BF8D105E051
:100740007B6820209847FB690133FB61FA693B69AC
:100750009A42F5DB7A687B69101C191CFFF714FFBD
:10076000BB690133BB61BB691B78002BC1D1BD469E
:1007700009B080BC08BC03B01847C04680B582B041
:1007800000AFFB1D11221A70FB1D1D202A21012222
:10079000FFF7A8FEBD4602B080BDC04680B586B05A
:1007A00000AF78600C23FB1800221A700C23FB1892
:1007B00000225A700C23FB1800229A700C23FB189D
:1007C0000022DA700C23FB1800221A710C23FB188C
:1007D00000225A710C23FB181D2001210622FFF76D
:1007E0000FFE0C23FB181B781B0299B20C23FB187D
:1007F0005B789AB21623FB180A431A801623FB185B
:1008000000229B5E9B119BB29BB25B429AB2162365
:10081000FB181A800C23FB189B781B0299B20C233F
:10082000FB18DB789AB21423FB180A431A801423AE
:10083000FB1800229B5E9B119BB29BB25B429AB25B
:100840001423FB181A800C23FB181B791B0299B286
:100850000C23FB185B799AB21223FB180A431A8007
:100860001223FB1800229B5E9B119BB29BB25B4242
:100870009AB21223FB181A801623FB1800229A5EE4
:100880007B681A607B6804331422BA180021525E18
:100890001A607B6808331222BA180021525E1A606F
:1008A000BD4606B080BDC04680B584B000AFF860DC
:1008B000B9607A60294AA223DB002949D150294A2C
:1008C000A223DB002849D150264A284B2349D15086
:1008D000244AA323DB002649D150224A254B1F4935
:1008E000D150204AA423DB002349D1501D4A234B79
:1008F0002349D1501B4AA523DB001F49D150194A77
:10090000204B1649D150174A1F4B0721D1501F4A7F
:100910001D4B0021D1501D4AA123DB000321D150E2
:100920001A4A80239B000221D1501849FA68A22359
:10093000DB00CA5015497A68A823DB00CA50134966
:10094000BB68134A8B5011497A68A923DB00CA504F
:100950000E4B01221A60BD4604B080BD006000400D
:100960000314130000F00140409100401405000002
:10097000449100401C0500004891004024050000FF
:10098000409000402C05000004050000009000404D
:100990004405000080B582B000AF78607B68002B12
:1009A00001DC01237B607A681649174BCB589A42C9
:1009B00004D3144A144BD358013B7B60114AA22341
:1009C000DB00D3585A425341DBB21A1C7B68D31860
:1009D000191C0C4AA823DB00D358994204D20B4AB5
:1009E0000B4B0821D15004E0084AA123DB00082169
:1009F000D15004497A68A923DB00CA50BD4602B031
:100A000080BDC046009000404405000000F0014059
:100A10000405000080B500AF00F034F8031E06D0D6
:100A2000124B134A1A60134B802212021A6000F014
:100A300069F8031E05D08023DA05C123DB000121FC
:100A4000D15000F085F8031E0ED00B4B1B68012B14
:100A500007D0094B094A1A60C046074B1B68012B97
:100A6000FBD1074BC0221A60BD4680BD0405004083
:100A7000DFFF07C0186C004000EC064075930000D3
:100A800014EC064080B500AF1A4B1B68FF221340E0
:100A9000012B2AD1184B1B680F22134025D1174B6D
:100AA0001B68F022134006D1154B1B68F02213403F
:100AB00001D101231AE0114B1B68F0221340102BC7
:100AC00006D10F4B1B68F022134001D101230DE02A
:100AD0000A4B1B68F0221340302B06D1084B1B68D1
:100AE000F022134001D1012300E00023181CBD4671
:100AF00080BDC046E00F00F0E40F00F0E80F00F00A
:100B0000EC0F00F080B500AF0D4B1B68FF221340C7
:100B1000012B11D10B4B1B680F2213400CD10A4B38
:100B20001B68F0221340402B06D1084B1B68F022B3
:100B3000134001D1012300E00023181CBD4680BDF5
:100B4000E00F00F0E40F00F0E80F00F0EC0F00F011
:100B500080B500AF144B1B68FF221340012B1ED140
:100B6000124B1B680F22134019D1114B1B68F02246
:100B70001340A02B06D10F4B1B68F022134001D16C
:100B800001230DE00A4B1B68F0221340D02B06D145
:100B9000084B1B68F022134001D1012300E0002321
:100BA000181CBD4680BDC046E00F00F0E40F00F009
:100BB000E80F00F0EC0F00F003210A4802680A4336
:100BC0000260094802680A4302600849084A094B62
:100BD0009B1A03DD043BC858D050FBDCFFF71AFF1B
:100BE000FFF7C8FA24050040540500405C110000DE
:100BF0000000002038040020FEE7FEE7FEE7FEE7E5
:100C0000FEE7FEE703460B437FD4002243088B42F6
:100C100074D303098B425FD3030A8B4244D3030B83
:100C20008B4228D3030C8B420DD3FF22090212BA48
:100C3000030C8B4202D31212090265D0030B8B42C4
:100C400019D300E0090AC30B8B4201D3CB03C01AAE
:100C50005241830B8B4201D38B03C01A5241430B89
:100C60008B4201D34B03C01A5241030B8B4201D379
:100C70000B03C01A5241C30A8B4201D3CB02C01AE4
:100C80005241830A8B4201D38B02C01A5241430A5C
:100C90008B4201D34B02C01A5241030A8B4201D34B
:100CA0000B02C01A5241CDD2C3098B4201D3CB01F2
:100CB000C01A524183098B4201D38B01C01A5241A1
:100CC00043098B4201D34B01C01A524103098B42A5
:100CD00001D30B01C01A5241C3088B4201D3CB0090
:100CE000C01A524183088B4201D38B00C01A524173
:100CF00043088B4201D34B00C01A5241411A00D223
:100D000001465241104670475DE0CA0F00D049428B
:100D1000031000D34042534000229C4603098B42FB
:100D20002DD3030A8B4212D3FC22890112BA030A83
:100D30008B420CD3890192118B4208D38901921105
:100D40008B4204D389013AD0921100E08909C3098A
:100D50008B4201D3CB01C01A524183098B4201D38C
:100D60008B01C01A524143098B4201D34B01C01A77
:100D7000524103098B4201D30B01C01A5241C308EF
:100D80008B4201D3CB00C01A524183088B4201D35E
:100D90008B00C01A5241D9D243088B4201D34B0079
:100DA000C01A5241411A00D20146634652415B10BB
:100DB000104601D34042002B00D54942704763469C
:100DC0005B1000D3404201B5002000F00BF802BDDB
:100DD0000029F8D003B5FFF715FF0EBC4243891A6E
:100DE0001847C0467047C04608B5011C00220020C5
:100DF000002300F095F808BD10B50021041C00F098
:100E000005F9044B1868C36B002B00D09847201CD1
:100E100000F080F94C11000038B5094B094CE41A78
:100E2000A41009D0084AA518AD00ED182B68013CA4
:100E30009847043D002CF9D100F074F938BDC04644
:100E40003004002034040020FFFFFF3F70B50D4E3A
:100E50000D4D0024AD1BAD1005D0A300F358013497
:100E60009847A542F9D100F057F9084E084D0024E3
:100E7000AD1BAD1005D0A300F35801349847A5422F
:100E8000F9D170BD28040020280400202804002087
:100E90003004002070B583073FD0541E002A3BD099
:100EA000CEB2031C032503E0621E002C34D0141CB8
:100EB00001335A1E16702B42F6D1032C24D9FF257C
:100EC0000D402A0215432A0415430F2C11D9261C64
:100ED000103E3609013636011A1C9B191560556003
:100EE0009560D56010329342F8D10F221440032C44
:100EF0000AD9261FB6080136B6001A1C9B1920C253
:100F00009342FCD103221440002C05D0C9B21C1915
:100F100019700133A342FBD170BD141C031CCCE734
:100F2000F8B544465F4656464D469B462F4BF0B4B7
:100F30001C68A4235B00051CE0580E1C904600288A
:100F40004BD043681F2B0DDC5C1C002D21D10233DC
:100F50009B0044601E5000203CBC90469946A2462F
:100F6000AB46F8BD224B002B3CD0C820400000E02F
:100F700000BF002836D0A42200235200A1584360AD
:100F80000160A05040328350043283500124002D70
:100F9000DDD09A0091468144424688214F467A50DE
:100FA000C4225200904680444246873999401268D4
:100FB0008A460A4394464246614611608422494665
:100FC0005F4652008F50022DC1D1021C55468D3212
:100FD000FF3211680D431560B9E7201C4D30FF301A
:100FE000E050AEE701204042B6E7C0464C11000099
:100FF0000000000008B5034B002B02D00248FFF7A9
:10100000F3FE08BD00000000190E0000F0B55646C2
:101010005F464D464446F0B40E1C3C4B87B01B68FF
:10102000019003934933FF330493A422039B52009E
:101030009F58002F4CD0049B984600239B46C42306
:101040005B009C46BC4463460293C6235B009A4601
:101050007C68BA44A5007D19013C08D526E06B1DCB
:10106000FF331B68B34204D0043D013C1ED3002E65
:10107000F5D17B686A68013BA3423AD05B466B605E
:10108000002AF1D07B68029999460123A3400968A0
:101090000591194223D190477B684B45C5D1434602
:1010A0001B68BB42C1D1043D013CE0D2184B002B70
:1010B0000ED07B68002B23D13B68002B24D0424606
:1010C000381C136000E000BF43461F68002FB6D1F4
:1010D00007B03CBC90469946A246AB46F0BD51468F
:1010E0000968194207D12B1C84331968019890476D
:1010F000D2E77C60C4E72B1C843318689047CBE7A9
:101100003B68B8461F1CE1E70023FAE74C110000DA
:1011100000000000FEE7C046F8B5C046F8BC08BCB9
:101120009E467047F8B5C046F8BC08BC9E4670475E
:10113000583A2025366420593A20253664205A3AF8
:10114000202536640A0D0000430000000000002046
:04115000000000009B
:0811540020F0FF7F0100000004
:10115C0000000000EC02002054030020BC0300201F
:10116C000000000000000000000000000000000073
:10117C000000000000000000000000000000000063
:10118C0000000000481100000000000000000000FA
:10119C000000000000000000000000000000000043
:1011AC000000000000000000000000000000000033
:1011BC000000000000000000000000000000000023
:1011CC000000000000000000000000000000000013
:1011DC000000000000000000000000000000000003
:1011EC0000000000000000000000000000000000F3
:1011FC0000000000000000000100000000000000E2
:10120C000E33CDAB34126DE6ECDE05000B000000A6
:10121C0000000000000000000000000000000000C2
:10122C0000000000000000000000000000000000B2
:10123C0000000000000000000000000000000000A2
:10124C000000000000000000000000000000000092
:10157C000000000000000000F50F00003901000021
:08158C000D0100000000000049
:0400000300000BB935
:00000001FF
